:020000040800F2
:10000000800800206501000829280008BD1B0008A1
:1000100000000000000000000000000000000000E0
:100020000000000000000000000000002D28000873
:1000300000000000000000002B2800082F28000806
:100040009501000895010008950100089501000838
:100050009501000895010008950100089501000828
:100060009501000895010008E1040008F904000862
:100070009501000895010008950100089501000808
:100080009501000800000000000000009501000834
:10009000000000009501000895010008C11B000840
:1000A0000000000095010008950100089501000876
:1000B0006D2E000800000000950100089501000861
:1000C00000F002F800F03EF80CA030C80838241800
:1000D0002D18A246671EAB4654465D46AC4201D180
:1000E00000F030F87E460F3E0FCCB6460126334274
:1000F00000D0FB1AA246AB46334318475C320000DF
:100100007C320000103A02D378C878C1FAD852077E
:1001100001D330C830C101D504680C6070470000BD
:100120000023002400250026103A01D378C1FBD813
:10013000520700D330C100D50B6070471FB51FBDFB
:1001400010B510BD00F099F91146FFF7F7FF02F066
:100150008FFF00F0B1F903B4FFF7F2FF03BC00F02A
:10016000B7F900000F4880F308880F480168090EAE
:100170000E4A914205D10E480E4901600E480F49C2
:1001800001600F4880470F480047FEE7FEE7FEE7A3
:10019000FEE7FEE7FEE700000B480C490C4A0D4B5A
:1001A0007047000080080020040000001F000000CD
:1001B0001810024001000000000001400000000093
:1001C000A1280008C100000880020020800800204B
:1001D0008004002080040020FEB5054610460C4631
:1001E000184373D0AE468C460020AD1A01469C41A0
:1001F00067D36646002701243D46B61A9D4102D3C7
:1002000013463A462124654676462F04360C3E4373
:100210002D0CB61A9D4104D3150C1B042B4312045C
:100220001034654676462F06360A3E432D0AB61A26
:100230009D4104D3150E1B022B4312020834654660
:1002400076462F0736093E432D09B61A9D4104D341
:10025000150F1B012B431201241D65467646AF077F
:10026000B6083E43AD08B61A9D4104D3950F9B00D6
:100270002B439200A41C65467646EF0776083E4362
:100280006D08B61A9D411AD392185B41641C16E0A2
:100290000018764665464941B71A9D410191009084
:1002A00009D36046B11A98418E4684460098019958
:1002B0000025401C6941DD0752082A435B08641E83
:1002C000E6D57246634603B0F0BDFFE70020014665
:1002D000C046C0462A462346F5E701E004C0091F90
:1002E0000429FBD28B0701D50280801CC90700D0EE
:1002F0000270704700290BD0C30702D00270401C67
:10030000491E022904D3830702D50280801C891E5E
:10031000E3E70022EEE70022DFE7002203098B4239
:100320002CD3030A8B4211D300239C464EE0034694
:100330000B433CD4002243088B4231D303098B4248
:100340001CD3030A8B4201D394463FE0C3098B427E
:1003500001D3CB01C01A524183098B4201D38B01D7
:10036000C01A524143098B4201D34B01C01A52417A
:1003700003098B4201D30B01C01A5241C3088B42BF
:1003800001D3CB00C01A524183088B4201D38B00AA
:10039000C01A524143088B4201D34B00C01A52414C
:1003A000411A00D201465241104670475DE0CA0F23
:1003B00000D04942031000D34042534000229C46E3
:1003C00003098B422DD3030A8B4212D3FC228901ED
:1003D00012BA030A8B420CD3890192118B4208D3C3
:1003E000890192118B4204D389013AD0921100E025
:1003F0008909C3098B4201D3CB01C01A5241830939
:100400008B4201D38B01C01A524143098B4201D365
:100410004B01C01A524103098B4201D30B01C01A90
:100420005241C3088B4201D3CB00C01A524183080A
:100430008B4201D38B00C01A5241D9D243088B4260
:1004400001D34B00C01A5241411A00D20146634603
:1004500052415B10104601D34042002B00D5494267
:10046000704763465B1000D3404201B50020C04690
:10047000C04602BD704770477047754600F024F8CB
:10048000AE46050069465346C008C000854618B010
:1004900020B5FFF781FE60BC00274908B64600265C
:1004A000C0C5C0C5C0C5C0C5C0C5C0C5C0C5C0C524
:1004B000403D49008D46704710B50446C046C046D1
:1004C0002046FFF748FE10BD004870471C02002080
:1004D00001491820ABBEFEE726000200704700006D
:1004E00010B5034800F083F8024800F080F810BD12
:1004F000500100200C01002010B5034800F077F8EF
:10050000024800F074F810BD94010020D8010020CA
:1005100010B504460068054940181421FFF7FDFE98
:10052000800020640248E06310BD0000F8FFFDBFBA
:100530000000024030B5056C0124AC40C56B6C6016
:10054000046863604368102B036803D099600068F7
:10055000C26030BD9A600068C16030BD72B6FEE70F
:1005600030B5014620314B780022022B04D0042301
:1005700083630A70012030BD03681C680E25AC43FC
:100580001C6003681C68640864001C600123056C1F
:100590001C46C06BAC4044604B700A70002030BDFC
:1005A00070B50024014620314A78022A03D0042184
:1005B0008163012416E0026813680E25AB431360C3
:1005C000026813685B085B0013600122056C134628
:1005D000AB40C56B6B604A7000220A70416B00290A
:1005E00000D08847204670BD203040787047F0B476
:1005F000C16B0D6801680C680422066C1346B34099
:100600002B420DD063070BD50B689B0602D40B68F9
:1006100093430B60016C8A40C16B4A60C16A19E068
:100620000227B74002462F4001232032002F15D069
:10063000A70713D50C68A40604D40C680A25AC439C
:100640000C605370036C02219940C36B5960002108
:100650001170816A002916D0F0BC08470827B740FE
:100660002F4210D024070ED50C680E25AC430C6029
:10067000046C1946A140C46B616083635370002110
:100680001170016BE6E7F0BC7047000070B5040024
:1006900021D0022120462030054641702268116891
:1006A0000E48A3680140606826691843E368334335
:1006B000184363691843A3691843E369184308435F
:1006C00010602046FFF724FF0021A163012068701D
:1006D0002970084670BD012070BD00000FC0FFFFEB
:1006E000F8B504468C46203001780025012909D050
:1006F0000126067041780027012905D007700225E0
:100700002846F8BD0220F8BD02214170A763206889
:10071000016849084900016061462046FFF70AFF69
:10072000E06A00282068016802D00E22114306E02A
:100730000A2211430160206801680422914301608C
:100740002068016831430160DAE70000F8B5002352
:1007500003240125B5E02E469E40B44632407CD0AD
:100760000E79B607B60F012E01D0022E17D186687A
:100770002746B6465E00B74000967646BE43B6466C
:10078000CF68009EB7407646374387604668674625
:10079000BE430F79FF06FF0F9F40374347600E7936
:1007A000F643B6070ED0C6682746B4465E00B64686
:1007B000B7406646BE43B4468F687646B740664645
:1007C0003743C7600E79B607B60F022E14D1DE0884
:1007D000B60036180096366A5F07B446FE0E0F273D
:1007E000B646B7406646BE43B4460F697646B74044
:1007F00066463743009E376206682746B4465E0069
:10080000B646B7406646BE430F79B446BF07BF0F32
:100810007646B7406646374307604E68B603B60F64
:100820004ED02B4FBE692E43BE61BE699F08F607AE
:10083000F60F284EBF00BE190096B6680F27B446C3
:100840009E07360FB646B7406646BE430927FF06E9
:10085000B446B84202D100270BE031E01E4FB84247
:1008600001D1012705E01D4FB84201D1022700E068
:1008700005277646B74066463743009EB760184E58
:1008800036684F689643FF0300D51643144F3E6009
:100890007E684F689643BF0300D51643104F7E60B5
:1008A000BE684F689643FF0200D516430C4FBE60EA
:1008B000FE684F689643BF0200D51643084AD660CB
:1008C0005B1C0A681646DE4000D044E7F8BD000015
:1008D00000100240000001400004004800080048E9
:1008E00000040140002A01D0816170478162704795
:1008F00001488068704700000000002070B5024683
:1009000040325378202B1CD11378012B19D00123AE
:10091000137024245470046825689D43256004687E
:1009200025681E03B5432560046825680D432560CE
:100930000068016819430160202050700020107089
:1009400070BD022070BD70B5024640325378202B36
:100950001BD11378012B18D0012414702423537059
:1009600003681D68A5431D6005682B680F263602C5
:10097000B3430902194329600068016821430160FB
:10098000202050700020107070BD022070BD704794
:10099000704770B503689A691968D243D40508D4C2
:1009A000CC43240605D4446C01252C4344642C021A
:1009B000DC61530509D4CB431B0606D4436C0824E1
:1009C00023434364E3010468E361920509D4C94306
:1009D000090606D4416C02221143416411020268E7
:1009E000D161416C0B22114201D001F00FFA70BDB0
:1009F000026891691268436B002B00D0184770475A
:100A00007047000070B5040006D025464035687870
:100A10000026002802D005E0012070BD2E7020467F
:100A200000F0CCF92420687020680168490849006A
:100A300001600F2160680906884321680861216808
:100A40008A680120C00382438A60E1680129A168A5
:100A500008D021229202114322689160E1680229A4
:100A600002D005E00143F7E701212268C902516085
:100A700021684A680F4B1A434A602168CA6882435A
:100A8000CA60616920690843A169090208432168B5
:100A9000C860216AE069084321680860206801682D
:100AA0000122114301606664202068702663AE70E5
:100AB000002070BD0080000270470000174810B58C
:100AC0000146027808310988022A09D0052A15D082
:100AD000042A04D149BA090414D502F03FFA10BD22
:100AE000807849BA49064006490E400E884201D135
:100AF000012000E0002002F00FFA10BD48BA02F019
:100B000013FA10BD054A01210C3211700421017045
:100B100001239021406800F0C1F810BD10000020B2
:100B200070B5174C01212578224620460C324068CA
:100B30002B0002F0BBF9060D040E131C0E0D1170F4
:100B400002210F4A217001230C32902100F0A6F8F7
:100B500070BD0B4A0223083290210DE01170042170
:100B6000074A217001230C32902100F097F8044AC3
:100B7000022308329021606800F004F870BD000084
:100B800010000020FFB5054604464035687881B066
:100B9000202874D120688069C04300046FD528786C
:100BA00001286CD001202870222068701020A870C5
:100BB00000266664626263853248E06232486063A0
:100BC000608DFF2804D9FF20012720853F0607E01C
:100BD000608D012320855B0600041F46000C3DD07C
:100BE000E06B00281BD029498162E16B284808632B
:100BF000E06BC662E06B46632168238D2431E06BB5
:100C0000FFF76EFD002810D020206870AE70606C79
:100C10001021084360642E70012005B0F0BD202033
:100C20006870AE70606C8021F3E71A480090208DE8
:100C30003B46C2B22046029901F036FD608D218DFF
:100C4000401A60852E701021204601F061F820685E
:100C500001680122D203114301600DE00E48606378
:100C60000C48009000222046029901F01DFD2E70D4
:100C70000121204601F04CF80020CEE7FFE70220DA
:100C8000CBE700000000FFFF29220008151C000828
:100C9000FD1B00080024008035230008FFB5054631
:100CA00004464035687881B09446202875D1206884
:100CB0008069C043000470D5287801286DD00120D8
:100CC0002870212068701020A87000266664626277
:100CD00063853348E06233486063608DFF2804D940
:100CE000FF20012720853F0607E0608D0123208536
:100CF0005B0600041F46000C3ED0A06B00281CD0F1
:100D000029498162A16B29480863A06B6146C662CC
:100D1000A06B46632268238D2832A06BFFF7E0FCAE
:100D2000002810D020206870AE70606C102108433D
:100D300060642E70012005B0F0BD20206870AE7098
:100D4000606C8021F3E71A480090208D3B46C2B2C8
:100D50002046029901F0A8FC608D218D401A608523
:100D60002E701021204600F0D3FF20680168012278
:100D70009203114301600DE00E4860630C4800903F
:100D800000222046029901F08FFC2E70012120469E
:100D900000F0BEFF0020CEE7FFE70220CBE7000017
:100DA0000000FFFF29220008691C0008FD1B000845
:100DB000002000803523000870477047F0B587B0E9
:100DC000054614216846FFF7A6FA2C492868884290
:100DD00051D12B4C6169012080040143616161693B
:100DE000002701400591C0200090122001900320AF
:100DF000039001200490029769462248FFF7A6FC61
:100E0000E169012040050143E161E1691F4C0140B6
:100E10001D48059181C42760A760E760802627618F
:100E20006660B70167611948083CFFF72FFC00288E
:100E300001D0FFF793FBEC6313486562144C143840
:100E40002060102060600020A06020616061E76188
:100E5000E660A0612046FFF719FC002801D0FFF7EB
:100E60007DFBAC63002211461720656200F06EF82E
:100E7000172000F05FF807B0F0BD000000540040FC
:100E80000010024000040048300002400C01002025
:100E90005001002070477047024881680278891825
:100EA000816070470000002010B5064801681022DC
:100EB00011430160032000F007F800F027F800203C
:100EC00010BD00000020024070B504460D4D7D208D
:100ED0002978C000FFF721FA01460B480068FFF7A8
:100EE0001CFA00F0A3FB002809D1042C07D2002231
:100EF0002146401E00F02AF800206C6070BD0120E1
:100F000070BD0000000000200C00002008B508485B
:100F10008169012211438161816911400091C26997
:100F200001040A43C261C0690840009008BD000086
:100F300000100240002805DBC106C90E01208840D0
:100F4000014908607047000000E100E010B501F0C1
:100F5000BBFF10BDF8B5044600683E4DC00352D536
:100F6000E8690026C00007D4E96928040143E96163
:100F7000E96901400126009137480168C90510D48C
:100F80000168821511430160FFF7B2FC074604E0D7
:100F9000FFF7AEFCC01B642824D82F480068C005AA
:100FA000F6D5286A03273F02384020D061683940CF
:100FB00081421CD0286A2A6AB843012109040A43E5
:100FC0002A622A6A8A432A622862C0070FD0FFF782
:100FD0008FFC009008E0FFF78BFC0099411A1F4836
:100FE000814201D90320F8BD286A8007F3D5286A19
:100FF0006168B84308432862002E04D0E9690120E3
:1010000000078143E9612078C00705D0286BA168FB
:1010100080088000084328632078800605D5286B67
:1010200010218843E168084328632068800305D5C0
:10103000286B802188436169084328632088400524
:1010400005D5286B40218843216908432863002087
:10105000F8BD00000010024000700040881300003E
:10106000F8B50F4606005FD03D4D2868C007C00F99
:10107000B84209D2286840084000384328602868F0
:10108000C007C00FB8424FD13068364C81070CD52D
:10109000400704D560680721090208436060606862
:1010A000F0218843B168084360603078C0072CD0D5
:1010B0007068012810D0022811D0032812D02168AE
:1010C0008907002930DA6168890889000143616075
:1010D000FFF70EFC009011E021688903F1E7216819
:1010E0008901EEE7616BC903EBE7FFF701FC0099AB
:1010F000411A1D48814201D90320F8BD60680C21C6
:101100000840716889008842EFD12868C007C00F85
:10111000B8420BD928684008400038432860286846
:10112000C007C00FB84201D00120F8BD3078400799
:1011300006D56068072109028843F16808436060AA
:1011400000F028F86168094A0906090F515CC84097
:10115000074908600320FFF7B7FE0020F8BD000034
:1011600000200240001002408813000018330008DD
:101170000C0000200448054900684968044A4905F4
:10118000490F515CC84070470C000020001002401D
:101190002833000830B519A30FCB89B06C460FC4B3
:1011A0001AA30FCB0FC41D4A51680C200B460340F5
:1011B0001B48042B05D01B4D082B04D00C2B00D151
:1011C000284609B030BD8B021B0F6C46E45CD26A26
:1011D00004AB1207120FC9039A5C890F022901D0D0
:1011E000032901D0002301E0002328460021FEF757
:1011F000F3FF214601F042FEE3E70000020304058D
:10120000060708090A0B0C0D0E0F1010010203044B
:1012100005060708090A0B0C0D0E0F1000100240FE
:1012200000127A00006CDC02FEB5040070D0207859
:10123000F94EFA4DC00748D068680007800F0128B2
:101240001FD068680007800F022804D16868C003B7
:10125000800F022815D06168012919D0012080046F
:10126000002901D0052917D02968B14329602968D0
:1012700081432960606800281BD0FFF739FB0746CF
:1012800013E02868800320D560680028CED01CE0D9
:10129000286830432860EDE7296801432960F7E7B3
:1012A000FFF726FBC01B642870D828688003F7D599
:1012B0000BE0FFF71DFB074604E0FFF719FBC01B1F
:1012C0006428F1D828688003F7D4207880073FD5B8
:1012D00068680007800F14D068680007800F022834
:1012E00004D16868C003800F01280AD0E068002894
:1012F00028681ED0012108432860FFF7F9FA074645
:101300000CE0286880070CD5E068012800D108E0CF
:1013100080E1FFF7EDFAC01B0228C5D828688007D6
:10132000F7D52868F82188432169C9000843286057
:101330000EE0400840002860FFF7DAFA074604E0B4
:10134000FFF7D6FAC01B0228AED828688007F7D46A
:101350002078000723D5E0690028686A0FD00121B2
:1013600008436862FFF7C4FA074604E0FFF7C0FAD3
:10137000C01B022898D8686A8007F7D50FE040089C
:1013800040006862FFF7B4FA074605E0C3E0FFF7E4
:10139000AFFAC01B022887D8686A8007F7D4207884
:1013A00004274007002861DA00200190E869C000A6
:1013B00008D4E969B8060143E961E96901400120FF
:1013C0000091019096480168C90511D40168821501
:1013D00011430160FFF78CFA009005E0FFF788FAEF
:1013E0000099401A642898D88D480068C005F5D542
:1013F000A06801280AD0002801D0052811D0286A49
:10140000400840002862286AB84302E0286A0121A7
:1014100008432862A068002812D0FFF769FA0090FC
:101420000AE0286A38432862F0E7FFF761FA00997A
:10143000411A7C4881426ED8286A8007F5D50DE0B4
:10144000FFF756FA009006E0FFF752FA0099411AAA
:10145000744881425FD8286A8007F5D40198002833
:1014600004D0E969012000078143E9612078C006C2
:1014700035D5606901280CD0401D686B24D03843F5
:101480006863686B400840006863FFF731FA0746FD
:1014900022E0686B38436863686B01210843686326
:1014A000FFF726FA074604E0FFF722FAC01B0228DE
:1014B00031D8686B8007F7D5686BF8218843A1693C
:1014C000C900084368630AE0B8436863F4E7FFF7BC
:1014D0000FFAC01B02281ED8686B8007F7D420784B
:1014E000800637D568680007800F032814D0686825
:1014F0000007800F022804D16868C003800F03280A
:101500000AD0206A0028686B16D030436863FFF762
:10151000EFF906460CE062E0686BC0031AD5206A5A
:10152000012877D116E0FFF7E3F9801B022856D88F
:10153000686BC003F7D50DE0B0436863FFF7D8F9D7
:10154000064604E0FFF7D4F9801B022847D8686BF1
:10155000C003F7D4606A002866D069680907890F5C
:10156000022942D0012636060228286805D0B04359
:101570002860FFF7BDF9044633E0B0432860FFF769
:10158000B7F9074604E0FFF7B3F9C01B022826D8D5
:1015900028688001F7D4E86A216B0009000108433C
:1015A000E862A16AE06A084369687B22D20391433A
:1015B00008436860286830432860FFF799F90446BB
:1015C00004E0FFF795F9001B022808D8286880017D
:1015D000F7D529E0FFF78CF9001B022801D9032079
:1015E000FEBD28688001F5D41EE00128F8D06868A7
:1015F000E96A0322D203A36A02409A420AD1090788
:10160000226B090F914205D10F2189040840E16A3C
:10161000884209D00120FEBD0000010000100240F8
:1016200000700040881300000020F4E7094910B55D
:10163000401E884201D9012010BD074C6061032182
:10164000081F01F041FC0020A0610720206100205C
:1016500010BD0000FFFFFF0000E000E07047704792
:1016600070470000F8B502680446D06911689668B2
:10167000A24B03401D462023002D75D0F707A04D37
:10168000FF0FBC460D402F436DD02546C707803560
:10169000002F06D0CF0504D5012717622A683A43E8
:1016A0002A60820708D5F20706D0276802223A622C
:1016B0002A6804273A432A60420708D5F20706D071
:1016C0002668042232622A68022632432A60020710
:1016D0000AD50A461A406646324305D026680822D3
:1016E00032622E6816432E60020508D54A0106D5DF
:1016F00001222668D20232622A681A432A602A68C6
:10170000002A39D0800606D5880604D5616E0029E6
:1017100001D020468847286821688968490602D494
:10172000282108422DD0204601F004FA216888685B
:10173000400622D5EFF31080012282F310888B68D7
:10174000402293438B6080F31088206F002814D0D0
:101750006C494163206FFEF723FF00280CD0206FF7
:10176000416B08E000E012E0850610D58D060ED52D
:10177000616EA8E020468847F8BD2046FFF770FF5D
:10178000F8BD2046FFF76CFF00202860F8BD256EED
:10179000012D7DD1C5067BD5CD0679D510261662E3
:1017A00022689068254640064035002845DA216FBA
:1017B000086840680004000CE8D02F8B8742E5D908
:1017C00068838869202833D0EFF31080012181F3EA
:1017D000108811683701B943116080F31088EFF366
:1017E0001080012181F3108821688A685208520014
:1017F0008A6080F31088EFF31080012181F3108854
:1018000021688A684027BA438A6080F31088E367BA
:1018100000202066EFF31080012181F310882168F9
:101820000A68B2430A6080F31088206FFEF798FEC2
:10183000288B698B401A81B231E0288B698B401A62
:1018400081B2688B0028A1D000299FD0EFF31080CF
:10185000012585F310881568FF272137BD431560E2
:1018600080F31088EFF31080012282F31088226841
:1018700095686D086D00956080F31088E36700201F
:1018800020666066EFF31080012282F3108800E08A
:1018900009E022681368B343136080F31088204680
:1018A000FFF7DCFEF8BDC50208D5750206D501209C
:1018B000000510622046FFF7D2FEF8BD050606D5EA
:1018C0000D0604D5A16E002900D053E7F8BD4006EF
:1018D000FCD54806FAD52046EFF31081012484F3A5
:1018E000108815684024A543156081F3108883672C
:1018F0000021816600F060F9F8BD00000F080000CB
:1019000020010004D129000810B5040003D0A06F05
:10191000002802D007E0012010BD002174200155ED
:10192000204600F027F82420A067206801684908B5
:1019300049000160204601F03DF90128ECD0606AC1
:10194000002802D0204600F0ACFF20684168092240
:10195000D20291434160206881682A2291438160CC
:1019600020680168012211430160204600F0FEFF5B
:1019700010BD0000F0B587B0064614216846FEF79A
:10198000CAFC2A49306888424DD12948C2690121E0
:1019900049040A43C261C2690A40059242690A4386
:1019A00042614069002408400590224800900220CE
:1019B00001900320039001200490092002946946BD
:1019C000C006FEF7C3FE1D4D1B482860102080276F
:1019D000291D91C12C616C61AC612846EC61FEF758
:1019E00055FE002801D0FEF7B9FDF56612486E627B
:1019F000134D143011C52C60AC60EC602C616F602D
:101A00006C610F48083DFEF741FE002801D0FEF74B
:101A1000A5FD3567002211461C206E62FFF796FA7D
:101A20001C20FFF787FA07B0F0BD0000004400401B
:101A30000010024004800000440002409401002095
:101A4000D801002070B5C36F202B2BD100290BD0FB
:101A5000002A09D0012483682403A34206D1036924
:101A6000002B03D1CB0701D0012070BD03466033AA
:101A70001C7D012C16D001241C750023036604680C
:101A800063681B020BD5EFF31083012585F31088E3
:101A900025680126B6063543256083F3108801F0DA
:101AA00023F970BD022070BD10B5114801210278E4
:101AB00004460F3C052A10D013DC012A11D14278CC
:101AC000022A06D280780D2803D8A270E070217116
:101AD00007E0CD2001F088FB03E0E1716171002097
:101AE0006070032202496069FFF7ACFF10BD00007F
:101AF0002F00002070470000F8B50446806F2028B2
:101B000052D100290BD0002A09D00123A0681B0361
:101B1000984206D12069002803D1C80701D00120CE
:101B2000F8BD25466035287D01283DD00120287567
:101B300020464030E16402824282002627468037F8
:101B40003E602120A067E06E00281BD0174981620B
:101B5000E16E1748C862E16E16480863E06E1346EE
:101B60004663E06C216884460A4628326146E06E8E
:101B7000FEF7B6FD002805D0102038602E75202015
:101B8000A067CCE72168402008622E75EFF3108033
:101B9000012181F3108821688A6880231A438A60B2
:101BA00080F310880020F8BD0220F8BDE12A00086B
:101BB0002B2B0008E529000870477047FEE700005E
:101BC00010B50648006880694005400F034802D000
:101BD000FEF7DFFE10BDFEF70BFF10BD3C0000203E
:101BE00010B5406A0021826B002A00D05163C26B9D
:101BF000002A00D0516300F06BFD10BD10B5406AA3
:101C000001684A680123DB031A434A60102100F08F
:101C1000FDF810BD10B5446A206801680122D203A6
:101C200091430160608D002808D0218D606A4218C0
:101C30006262608DFF2803D9FF2002E020210FE0BF
:101C4000608D2085216883B22431E06BFEF748FD6A
:101C5000002804D01021204600F0D8F810BD402103
:101C6000204600F055F810BD10B5446A20680168A0
:101C70000122920391430160608D002808D0218DDC
:101C8000606A41186162608DFF2803D9FF2002E07D
:101C900020210FE0608D2085226883B22832A06B5E
:101CA000FEF71EFD002804D01021204600F0AEF8FB
:101CB00010BD4021204600F02BF810BDF0B50446C1
:101CC0000022CE0740342823B025002E05D06678A8
:101CD00042221F46B74300D0F2228E0705D5442684
:101CE00064783243A34300D02A43CB0B01D0B823FE
:101CF0001A43102908D0202907D0402905D00068B0
:101D0000016891430160F0BD90210A43F7E70000AC
:101D100010B5144C436B0022A34202D0124CA342D4
:101D20000ED1CB0B00D0B822102904D0202904D02A
:101D3000402903D011E0902100E060210A430CE02B
:101D4000CB0B00D0B822CB0701D0F2231A438B076C
:101D500001D5F4231A432029F0D00068016811430B
:101D6000016010BD292200086524000801688A6905
:101D7000D243920701D400228A6200688169C94374
:101D8000C90703D081690122114381617047F8B509
:101D9000054604464035687828218143206804D0F0
:101DA0000821C16100202870F8BD8169C903CF0FE7
:101DB0008169FE230E0C81681E408A05C168920D60
:101DC00019408C46E168022916D10621D3090E403C
:101DD0000B409E420FD1A16C491CA164A16C022949
:101DE000E2D10021A1640823C3612970394620464D
:101DF000FEF7CEFDF8BD66460121C9032046FFF778
:101E00005DFF002028703246F0E70000F8B5054677
:101E10000446403568780026AE70334AE262668533
:101E2000626C0A43626428281ED029281CD02A2804
:101E30001AD02E492046FFF741FF6878602801D06C
:101E4000202068706663206BA16B294F002903D0A6
:101E5000112812D0212810D0E16B002925D012289A
:101E600027D0222825D020E003212046FFF726FF97
:101E7000282068701F486063E5E72068016849040E
:101E800004D501680122920391430160A06BFEF723
:101E9000ABFB012809D0A06B47632E70A06BFEF747
:101EA0007FFB002804D0A06B1AE0204600F010FC55
:101EB000F8BD20680168090404D501680122D20335
:101EC00091430160E06BFEF78FFB0128EDD0E06BE2
:101ED00047632E70E06BFEF763FB0028E8D0E06BF1
:101EE000416B8847F8BD00000000FFFF0380000041
:101EF000E11B00087925000870B504461648E06229
:101F00000025256320222046403006464270857019
:101F1000C8436563400712D42068406A616A08704C
:101F2000606A401C6062208D002808D0401E208519
:101F3000608D401E6085606C042108436064074921
:101F40002046FFF7BBFE21681020C861357020468F
:101F5000FEF7B2FD70BD00000000FFFF038000002F
:101F6000F8B50546009100682027C7612C4640342B
:101F70006078212803D06078222806D00BE0012168
:101F80002846FFF79BFE112004E002212846FFF7B8
:101F900095FE1220286328684168254A1140416057
:101FA000002624486E63E8620098C043C10606D448
:101FB0002A681021D161696C042211436964617837
:101FC000602905D1400703D42868406AC0B2009058
:101FD0002846FFF7CBFE686C6178602901D00028A5
:101FE00004D0696C2846FFF711FFF8BD60782128FE
:101FF0000DD060782228F8D167702E63A078A67083
:1020000040282670284610D0FEF758FDF8BD6770AE
:102010002E63A078A67040282670284602D0FEF7CE
:102020007FFDF8BDFEF7C9FEF8BDFEF7C5FEF8BDA1
:1020300000E800FE0000FFFF70B5002506464036B0
:102040000446B57071782020212970700BD01220C1
:102050002063022120466563FFF730FE357020467D
:10206000FEF72CFD70BD1120206301212046656321
:10207000FFF724FE35702046FEF752FD70BD0000CC
:10208000F8B50268044616680546403568780F467C
:102090002021D161212806D0292804D0222808D067
:1020A0002A2806D00CE042492046FFF707FE2120EF
:1020B00005E03F492046491CFFF700FE222020632F
:1020C000206841680122D2031143416020684168C1
:1020D000384A114041602046FFF748FEF043410472
:1020E00007D4206801680122920391430160A06B2C
:1020F00008E000040BD4206802680121C9038A4368
:102100000260E06B002802D0006840686085F843F8
:102110004007042100280FDB20688F43406A626A71
:102120001070606A401C6062208D002804D0401E40
:102130002085608D401E6085608D002802D0606C17
:10214000084360640026AE706663606C00280BD0A4
:10215000616C2046FFF75AFE6878282803D139467B
:102160002046FFF7C9FEF8BDE06A134FB8420BD016
:10217000204600F023F8E7622020687026632E7066
:102180002046FEF799FCF8BD6878222807D0202069
:10219000687026632E702046FEF77DFEF8BD202075
:1021A000687026632E702046FEF774FEF8BD0000AE
:1021B0000180000000E800FE0000FFFF70B505464A
:1021C0000068016800262C464034A670C9434A04C2
:1021D00003D401680122920304E0090404D40168D5
:1021E0000122D203914301606178282029290ED071
:1021F00061782A290AD160702220286302212846AA
:10220000FFF75CFD26702846FEF744FE70BD607047
:102210002120286301212846FFF750FD267028461B
:10222000FEF739FE70BD0000F8B50546044640359E
:102230002878012817D001202870CB43DE06D04330
:10224000002E12DBC20610D421681020C861606C19
:1022500004210843606420212046FFF759FD2046F1
:10226000FFF784FD5FE00220F8BD304A304E1F06C4
:1022700037D4470635D4206801684023994301606C
:10228000608D00282068406828D08105608D890D08
:10229000FF2803D9FF2020859B0408E0608D20855E
:1022A000E06A904201D0E36A01E001235B0600206E
:1022B0000090208DC2B2204600F0F6F9608D218D8D
:1022C000401A6085687822282068016802D031436E
:1022D000016028E00122D2031143F9E7800117D5FC
:1022E00006E05F0618D4470616D4608D002804D097
:1022F00040212046FFF78AFD15E0206841688901EA
:1023000011D4E16A914203D14168314341600AE04E
:102310002046FFF791FE06E09A0604D4800602D418
:102320002046FFF71DFE00202870F8BD0000FFFFCB
:1023300000400000F8B507460446403738780E469E
:10234000012813D001203870F043C3060421D5437F
:10235000002B0DDBEA060BD422681020D061606CE4
:10236000084360642046FFF701FD5CE00220F8BDF1
:10237000420707D46A0705D420688E43406A616A21
:10238000087007E081070FD4A9070DD4606A21689F
:1023900000788862606A401C6062208D401E208543
:1023A000608D401E60853EE02D49020630D46A06ED
:1023B0002ED4608D002802D0208D002804D0206803
:1023C0004068800148D52AE020684068628D800519
:1023D000800DFF2A06D9FF220021228501231B063A
:1023E000009110E0628D2285E26A8A4205D00021C8
:1023F0000091E36A218DCAB205E000210091218D90
:102400000123CAB25B060146204600F04DF90AE0FE
:10241000400608D4680606D4608D00280FD04021FD
:102420002046FFF7F3FCF043800605D4A80603D44A
:1024300031462046FFF794FD00203870F8BD206833
:1024400042689201EFD4E26A8A4205D141680122D2
:10245000920311434160E6E72046FFF7EDFDE2E716
:102460000000FFFFF7B5C76A82B004460020264689
:10247000403601903078012823D001203070039835
:10248000D543C04300908006002805DBA80603D48E
:1024900020460399FFF7F4FD0098C0065FD4E806D4
:1024A0005DD469041020002901DA290454D4E16BB9
:1024B00000290BD02A0409D409684968002903D0EF
:1024C00004E0022005B0F0BD01210191A16B0029BB
:1024D00005D06A0403D409684968002902D001992B
:1024E00000291BD07178282908D1012149068F4283
:1024F00004D120460399FFF7FFFC39E071782929C0
:102500002AD101210904CF4226D02168C861204682
:10251000FFF72CFC2046FFF751FE29E02168C86137
:10252000606C0421084360647078002F02D0890534
:102530008F421DD1212806D0292804D0222804D07A
:102540002A2802D003E0212000E022202063616CD1
:102550002046FFF75BFC0BE02168C86108E00098AB
:10256000000705D4280703D420460399FFF70FFC82
:1025700000203070A6E70000FEB5C56A0446064696
:10258000403601913078012828D001203070019820
:10259000D743C04300908006002805DBB80603D46B
:1025A00020460199FFF76CFD00983D493D4AC00661
:1025B00030D4F8062ED4638D1020002B10D0216863
:1025C000C861606C042108436064002D01D095420D
:1025D00062D1616C2046FFF719FC5DE00220FEBD70
:1025E0007278282A08D101225206954204D1204649
:1025F0000199FFF781FC4FE07278292A07D18D42BB
:1026000005D02168C8612046FFF7B0FB41E0216892
:10261000C86141E00098400717D4780715D4608D51
:1026200000280CD02068406A626A1070606A401C02
:102630006062208D401E2085608D401E6085608D0B
:10264000002829D18D4224D126E00098000706D425
:10265000380704D420460199FFF799FB1CE0009845
:10266000800719D4B80717D4608D00280DD0606A90
:10267000216800788862606A401C6062608D401E3C
:102680006085208D401E208506E0954201D0002DFA
:1026900002D12046FFF792FD00203070FEBD000001
:1026A0000000FFFF00000001F0B50668059C75689A
:1026B000064F600D384385438805800D110408439B
:1026C0001843204305437560F0BD0000FF63FF031E
:1026D00010B5014640314B780022602B04D00263D4
:1026E0000A70FEF78DF910BD20234B7002630A704B
:1026F000FEF74DF910BD0000F0B587B01421684613
:10270000FDF709FE20484269012189050A4342611B
:1027100042690A400592426949110A43426142698D
:102720000A400592426949000A434261406909260C
:102730000840F6060590002214493046FEF7D2F80C
:10274000134F00221B213846FEF7CCF81148012414
:102750000025694631C1694630460395FDF7F6FF0D
:102760001B20694631C1694638460395FDF7EEFFE7
:1027700003204002694631C1032003906946304678
:10278000FDF7E4FF07B0F0BD00100240930F00001A
:10279000000400489309000010B513481149016076
:1027A0001249416000218160016141618161012222
:1027B000C161C2600162FEF725F9002801D072B63E
:1027C000FEE700210848FEF799F8002801D072B60C
:1027D000FEE700210448FEF7B6F8002801D072B6E3
:1027E000FEE710BD005400403C0000205D3E30205C
:1027F00010B50C480A490160E121490241600021FD
:102800008160C16001618161C1610C22016242612C
:102810004162FFF779F8002801D072B6FEE710BDDB
:102820000044004088000020FEE77047704710B564
:10283000FEF732FB10BD30B597B034216846FDF786
:102840006AFD00240D940E940F94182111A8109481
:10285000FDF761FD01202025089000950994684648
:10286000FEF7E2FC002801D072B6FEE707200D90CB
:1028700003200E900F94012110940DA8FEF7F0FB99
:10288000002801D072B6FEE710201490119511A80F
:10289000FEF760FB002801D072B6FEE717B030BD2E
:1028A000704710B5818CC90707D001684A680123B9
:1028B0005B049A43836A1A434A60818C890707D56F
:1028C00001684A6801231B049A43C36A1A434A6099
:1028D000818C490707D501684A6801239B049A4304
:1028E000036B1A434A60818C090707D501684A685F
:1028F0000123DB039A43436B1A434A60818CC90668
:1029000007D50268916801231B039943836B194320
:102910009160818C890607D501688A6801235B0371
:102920009A43C36B1A438A60818C490612D50368A7
:102930005A6801210905046C8A4322435A60026CDB
:102940008A4207D10268516803235B059943436CAF
:1029500019435160818C090607D501684A68012333
:10296000DB04806C9A4302434A6010BDF8B504460C
:10297000002680300660FDF7BBFF05462068006832
:10298000124F000709D501212B4600224905204698
:10299000009700F001FA00280DD120680068400778
:1029A0000BD501212B46002289052046009700F017
:1029B000F3F9002801D00320F8BD2020A067E067CC
:1029C0002666603426750020F8BD0000FFFFFF0179
:1029D00010B5406A0022014640314A834A82FEF720
:1029E0003FFE10BD70B5446AA06FE56F216889682D
:1029F00000260906002906DA212804D152200653B0
:102A0000204600F0C6F820688068400606D5222DD2
:102A100004D15A200653204600F08CF8204680301E
:102A200001681022114301602046FEF719FE70BDB7
:102A300010B501468969406A202938D000225A2100
:102A40000A52EFF31081012282F3108802681368A2
:102A5000FF240134A343136081F31088EFF3108146
:102A6000012282F31088026893685B085B00936020
:102A700081F31088EFF31081012282F3108802683D
:102A800093684024A343936081F310882021C16799
:102A9000016E01290BD1EFF31081012282F310881E
:102AA000026813681024A343136081F31088016E39
:102AB000012902D0FEF7F8FF10BD5821095AFEF790
:102AC000CDFD10BD10B5406A016E012902D0FFF79F
:102AD00011F810BD5821095A4908FEF7BFFD10BD75
:102AE00010B501468969406A20291BD00022522175
:102AF0000A52EFF31081012282F310880268936872
:102B00008024A343936081F31088EFF310810122A6
:102B100082F310880068026840231A43026081F340
:102B2000108810BDFFF748F810BD10B5406AFFF7D8
:102B300044F810BD10B5EFF31081012282F3108824
:102B400002681368FF242134A343136081F31088C3
:102B5000EFF31081012282F31088026893685B080A
:102B60005B00936081F31088016E01290BD1EFF3B4
:102B70001081012282F31088026813681024A34395
:102B8000136081F310882021C1670021016641662E
:102B900010BD10B5EFF31081012282F31088026896
:102BA0001368C024A343136081F310882021816738
:102BB00010BD000070B5044680682169E2690843D1
:102BC000616900251143226808431168404B194090
:102BD0000143116021684868032212039043E268B0
:102BE00010434860A169206A084321688A680B2362
:102BF0001B029A4302438A6036492068884210D1FA
:102C00003548006B8007800F0ED0012805D00228C0
:102C100005D003280AD1022109E0042107E0082198
:102C200005E02E49884201D1002100E01021012059
:102C3000E369C0032A4A2B4E834223D1002906D0E0
:102C4000022907D0042907D0082937D108E0FEF768
:102C500091FA03E0104603E0FEF79CFA002831D019
:102C6000616840004A088018FDF757FB80B20146B2
:102C70001039B14222D81B49491C01400007400FBE
:102C800008431DE0002906D0022907D0042907D0F7
:102C9000082913D108E0FEF76DFA03E0104603E0BF
:102CA000FEF778FA00280DD061684A081018FDF781
:102CB00034FB80B201461039B14201D9012501E04F
:102CC0002168C86000206066A066284670BD0000CC
:102CD000F369FFEF0038014000100240004400405B
:102CE00000127A00EFFF0000F8B50446416540305D
:102CF00000262746028380373E602220E067254673
:102D0000206F603500281BD020498162216F204848
:102D1000C862216F1F480863206F13464663606DC9
:102D20002168844662462431206FFDF7D9FC0028D3
:102D300006D0102038602E752020E0670120F8BDF5
:102D40002E75EFF31080012181F3108821680A6845
:102D5000FF2301331A430A6080F31088EFF31080D9
:102D6000012181F31088226893680B43936080F3FC
:102D70001088EFF3108081F3108821688A6840235F
:102D80001A438A6080F310880020F8BD312A0008B9
:102D9000C52A0008E5290008FFB581B00546174699
:102DA000044660350A9E55E0701C53D0FDF7A0FD27
:102DB0000499401AB04230D8002E2ED02068016805
:102DC000490747D5C069C043000543D401202168A5
:102DD000C0020862EFF31080012181F3108821689E
:102DE0000B68FF22A13293430B6080F31088EFF34E
:102DF0001080012181F3108821688A6852085200EE
:102E00008A6080F310882020A067E067803420600B
:102E100000202875032005B0F0BDEFF310800121DC
:102E200081F3108821680B68FF22A13293430B6065
:102E300080F31088EFF31080012181F3108821685E
:102E40008A68520852008A6080F310882020A067A8
:102E5000E067DDE72068C1690298884304D000205C
:102E6000B842A1D00020D6E70120F9E710B502480A
:102E7000FEF7F8FB10BD000088000020F8B5040C38
:102E80008BB2264682B25E430D0C1046370C584377
:102E9000360480190021794116466E43370C3604FA
:102EA0008019794126466E438919F8BD30B47446BD
:102EB000641E2578641CAB4200D21D46635D5B0036
:102EC000E31830BC184700008307FF22DB0E9A404E
:102ED0008907090E9940002808DB830809489B00F0
:102EE0001B18186890430843186070470007000FCC
:102EF0000838830804489B001B18D869904308438E
:102F0000D861704700E400E000ED00E0014948604E
:102F10007047000010000020024903220A708871E7
:102F2000704700002000002010B50B4B0121588194
:102F300019725979DA7911420CD00021D9711946E8
:102F400010220C310A704870000A887003225869F8
:102F5000FEF7D2FD10BD00002000002010B507498B
:102F600000200870054805210C3801700123034A30
:102F700090214068FDF792FE10BD00001C0000206B
:102F800008B5124A030012680092FFF78FFF0E087F
:102F90000808080811081B1B1B1B1B1B081B00290A
:102FA00002D001290ED101E0052009E0072007E049
:102FB000002902D0012905D101E0042000E006200B
:102FC00069460870684600F0ADF808BD3033000867
:102FD00010B50B4C01216088C9030843214660806D
:102FE00001220C310A70020A4A7088700320207096
:102FF00003460A4691216068FDF750FE10BD0000AF
:103000001000002070B5194C01252078002807D049
:1030100001280BD00026022812D0032824D119E061
:10302000A178E07800F09EF801202070A178E07887
:10303000FFF7A6FF02202070FDF75AFCA06113E005
:10304000FDF756FCA169401A7D21C90088420BD9C1
:10305000AD2005E0A079002801D0CC2000E0AE2012
:1030600000F0C2F800252670284670BD2000002020
:1030700008B5FDF719FFFFF7DEFBFFF73DFB124830
:1030800041690122114341614069104000220090D2
:1030900011460A20FDF75AFF0A20FDF74BFF0022D8
:1030A00011460B20FDF752FF0B20FDF743FFFFF702
:1030B00073FBFFF79DFB054908464C3800F074F898
:1030C00000F080F8FCE700000010024088000020BB
:1030D00070B5134C012560780026002802D0012825
:1030E0001BD108E001206070FDF702FCA061267290
:1030F000FFF76EFF11E0FDF7FBFBA169401A7D2190
:10310000C900884204D9AD2000F06EF8002504E023
:10311000207A002801D000256670284670BD000086
:103120002000002010B5C178027849011203114334
:103130008278407812021143400201430848C91CBA
:103140000246418001230C3213700C0A54709170B6
:103150000370032391214068FDF7A0FD10BD00001E
:103160001000002010B50300FFF7A0FE0E080A0AA9
:103170000D1013131A1A1A1A1A1A161A09480DE002
:103180000848801D0AE007480C3007E00548123067
:1031900004E00448183001E00248801F00F034F8D1
:1031A00010BD00003A33000810B5054C6161FFF70F
:1031B000ADFE214603220F316069FEF743FC10BDCE
:1031C0002000002010B5074C2079002803D0FFF71D
:1031D00019FF207110BD60790028FBD0FFF778FF40
:1031E000607110BD2000002010B506490322087050
:1031F00000208870487008460C384069FEF77CFC57
:1032000010BD00002C00002070B50925414EED06D0
:103210000446002906D001297AD1207800283CD024
:1032200001223BE02078002801D0012200E00022AA
:1032300001213046FDF756FB6078002801D00122BD
:1032400000E0002280212846FDF74CFBA0780028F2
:1032500001D0012200E0002210212846FDF742FBA8
:10326000E078002801D0012200E00022012149027B
:103270002846FDF737FB2079002801D0012200E025
:10328000002202213046FDF72DFB6079002801D095
:10329000012200E00022022137E000220121C902C0
:1032A0002846FDF71FFB6078002801D0012200E0CE
:1032B000002208213046FDF715FBA078002801D038
:1032C000012200E0002210213046FDF70BFBE078E0
:1032D000002801D0012200E00022012189022846B5
:1032E000FDF700FB2079002801D0012200E0002238
:1032F000FF2101312846FDF7F5FA6079002802D058
:10330000012201E004E0002201212846FDF7EAFA4B
:1033100070BD000000040048000000000000000034
:10332000010203040607080900000000010203046B
:103330000401010400000000000001000100000081
:103340000100010001000000000101000000000177
:103350000001000100010100783300080000002096
:103360003C00000004010008B43300083C000020C9
:1033700044080000200100080100000004000000D3
:103380000000000000127A000000000000000000B1
:103390000000000000000000000000040000000029
:1033A000000000000000000000000000000000001D
:0433B0000000000019
:04000005080000C12E
:00000001FF
